{
  "contractName": "Election",
  "abi": [
    {
      "constant": true,
      "inputs": [
        {
          "name": "",
          "type": "address"
        }
      ],
      "name": "votersEsec",
      "outputs": [
        {
          "name": "",
          "type": "bool"
        }
      ],
      "payable": false,
      "stateMutability": "view",
      "type": "function",
      "signature": "0x016c7871"
    },
    {
      "constant": true,
      "inputs": [
        {
          "name": "",
          "type": "uint256"
        }
      ],
      "name": "governanceParams",
      "outputs": [
        {
          "name": "id",
          "type": "uint256"
        },
        {
          "name": "paramName",
          "type": "string"
        },
        {
          "name": "paramDescription",
          "type": "string"
        },
        {
          "name": "upvotes",
          "type": "uint256"
        },
        {
          "name": "downvotes",
          "type": "uint256"
        }
      ],
      "payable": false,
      "stateMutability": "view",
      "type": "function",
      "signature": "0x95b65168"
    },
    {
      "constant": true,
      "inputs": [
        {
          "name": "",
          "type": "address"
        }
      ],
      "name": "votersInfla",
      "outputs": [
        {
          "name": "",
          "type": "bool"
        }
      ],
      "payable": false,
      "stateMutability": "view",
      "type": "function",
      "signature": "0xa86999fc"
    },
    {
      "constant": true,
      "inputs": [],
      "name": "paramCount",
      "outputs": [
        {
          "name": "",
          "type": "uint256"
        }
      ],
      "payable": false,
      "stateMutability": "view",
      "type": "function",
      "signature": "0xac909b28"
    },
    {
      "constant": true,
      "inputs": [
        {
          "name": "",
          "type": "address"
        }
      ],
      "name": "votersGdp",
      "outputs": [
        {
          "name": "",
          "type": "bool"
        }
      ],
      "payable": false,
      "stateMutability": "view",
      "type": "function",
      "signature": "0xd0b6e8f0"
    },
    {
      "constant": true,
      "inputs": [
        {
          "name": "",
          "type": "address"
        }
      ],
      "name": "votersIsec",
      "outputs": [
        {
          "name": "",
          "type": "bool"
        }
      ],
      "payable": false,
      "stateMutability": "view",
      "type": "function",
      "signature": "0xd55d7f4c"
    },
    {
      "constant": true,
      "inputs": [
        {
          "name": "",
          "type": "address"
        }
      ],
      "name": "votersJob",
      "outputs": [
        {
          "name": "",
          "type": "bool"
        }
      ],
      "payable": false,
      "stateMutability": "view",
      "type": "function",
      "signature": "0xec257ffa"
    },
    {
      "inputs": [],
      "payable": false,
      "stateMutability": "nonpayable",
      "type": "constructor",
      "signature": "constructor"
    },
    {
      "anonymous": false,
      "inputs": [
        {
          "indexed": true,
          "name": "paramId",
          "type": "uint256"
        }
      ],
      "name": "votedEvent",
      "type": "event",
      "signature": "0xfff3c900d938d21d0990d786e819f29b8d05c1ef587b462b939609625b684b16"
    },
    {
      "constant": false,
      "inputs": [
        {
          "name": "paramId",
          "type": "uint256"
        }
      ],
      "name": "upvote",
      "outputs": [],
      "payable": false,
      "stateMutability": "nonpayable",
      "type": "function",
      "signature": "0x01ddf070"
    },
    {
      "constant": false,
      "inputs": [
        {
          "name": "paramId",
          "type": "uint256"
        }
      ],
      "name": "downvote",
      "outputs": [],
      "payable": false,
      "stateMutability": "nonpayable",
      "type": "function",
      "signature": "0xf31fdad4"
    }
  ],
  "bytecode": "0x60806040523480156200001157600080fd5b506000600681905550620000ec6040805190810160405280600381526020017f4744500000000000000000000000000000000000000000000000000000000000815250608060405190810160405280605481526020017f47726f737320646f6d65737469632070726f6475637420616368696576656d6581526020017f6e7420627920676f7665726e6d656e7420696e2070617374206f6e652079656181526020017f722077657265207361746973666163746f72793f00000000000000000000000081525062000414640100000000026401000000009004565b620001be6040805190810160405280600981526020017f496e666c6174696f6e0000000000000000000000000000000000000000000000815250608060405190810160405280604381526020017f496e666c6174696f6e207261746520666f72207468652070617374207965617281526020017f20686173206265656e2077697468696e2061636365707461626c65206c696d6981526020017f74733f000000000000000000000000000000000000000000000000000000000081525062000414640100000000026401000000009004565b6200026a6040805190810160405280600c81526020017f4a6f62204372656174696f6e0000000000000000000000000000000000000000815250606060405190810160405280603d81526020017f4a6f62206372656174696f6e20627920676f7665726e6d656e7420696e20706181526020017f7374206f6e65207965617220776173207361746973666163746f72793f00000081525062000414640100000000026401000000009004565b6200033c6040805190810160405280601181526020017f496e7465726e616c205365637572697479000000000000000000000000000000815250608060405190810160405280604881526020017f496d70616374206f6620676f7665726e6d656e7420706f6c6963696573206f6e81526020017f2070726f6d6f74696e672073616665747920616e64207365637572697479207781526020017f617320676f6f643f00000000000000000000000000000000000000000000000081525062000414640100000000026401000000009004565b6200040e6040805190810160405280601181526020017f45787465726e616c205365637572697479000000000000000000000000000000815250608060405190810160405280605881526020017f496d70616374206f6620676f7665726e6d656e7420706f6c6963696573206f6e81526020017f2070726f6d6f74696e672073616665747920616e64207365637572697479206981526020017f6e7465726e6174696f6e616c6c792077617320676f6f643f000000000000000081525062000414640100000000026401000000009004565b62000578565b60066000815480929190600101919050555060a060405190810160405280600654815260200183815260200182815260200160008152602001600081525060008060065481526020019081526020016000206000820151816000015560208201518160010190805190602001906200048e929190620004c9565b506040820151816002019080519060200190620004ad929190620004c9565b5060608201518160030155608082015181600401559050505050565b828054600181600116156101000203166002900490600052602060002090601f016020900481019282601f106200050c57805160ff19168380011785556200053d565b828001600101855582156200053d579182015b828111156200053c5782518255916020019190600101906200051f565b5b5090506200054c919062000550565b5090565b6200057591905b808211156200057157600081600090555060010162000557565b5090565b90565b6114d180620005886000396000f3fe608060405260043610610099576000357c0100000000000000000000000000000000000000000000000000000000900463ffffffff168063016c78711461009e57806301ddf0701461010757806395b6516814610142578063a86999fc14610277578063ac909b28146102e0578063d0b6e8f01461030b578063d55d7f4c14610374578063ec257ffa146103dd578063f31fdad414610446575b600080fd5b3480156100aa57600080fd5b506100ed600480360360208110156100c157600080fd5b81019080803573ffffffffffffffffffffffffffffffffffffffff169060200190929190505050610481565b604051808215151515815260200191505060405180910390f35b34801561011357600080fd5b506101406004803603602081101561012a57600080fd5b81019080803590602001909291905050506104a1565b005b34801561014e57600080fd5b5061017b6004803603602081101561016557600080fd5b8101908080359060200190929190505050610bad565b604051808681526020018060200180602001858152602001848152602001838103835287818151815260200191508051906020019080838360005b838110156101d15780820151818401526020810190506101b6565b50505050905090810190601f1680156101fe5780820380516001836020036101000a031916815260200191505b50838103825286818151815260200191508051906020019080838360005b8381101561023757808201518184015260208101905061021c565b50505050905090810190601f1680156102645780820380516001836020036101000a031916815260200191505b5097505050505050505060405180910390f35b34801561028357600080fd5b506102c66004803603602081101561029a57600080fd5b81019080803573ffffffffffffffffffffffffffffffffffffffff169060200190929190505050610d13565b604051808215151515815260200191505060405180910390f35b3480156102ec57600080fd5b506102f5610d33565b6040518082815260200191505060405180910390f35b34801561031757600080fd5b5061035a6004803603602081101561032e57600080fd5b81019080803573ffffffffffffffffffffffffffffffffffffffff169060200190929190505050610d39565b604051808215151515815260200191505060405180910390f35b34801561038057600080fd5b506103c36004803603602081101561039757600080fd5b81019080803573ffffffffffffffffffffffffffffffffffffffff169060200190929190505050610d59565b604051808215151515815260200191505060405180910390f35b3480156103e957600080fd5b5061042c6004803603602081101561040057600080fd5b81019080803573ffffffffffffffffffffffffffffffffffffffff169060200190929190505050610d79565b604051808215151515815260200191505060405180910390f35b34801561045257600080fd5b5061047f6004803603602081101561046957600080fd5b8101908080359060200190929190505050610d99565b005b60056020528060005260406000206000915054906101000a900460ff1681565b6000811180156104b15750600681105b1515610525576040517f08c379a000000000000000000000000000000000000000000000000000000000815260040180806020018281038252600f8152602001807f496e76616c696420706172616d4964000000000000000000000000000000000081525060200191505060405180910390fd5b600181141561067257600160003373ffffffffffffffffffffffffffffffffffffffff1673ffffffffffffffffffffffffffffffffffffffff16815260200190815260200160002060009054906101000a900460ff161515156105f0576040517f08c379a00000000000000000000000000000000000000000000000000000000081526004018080602001828103825260118152602001807f43616e6e6f7420766f746520747769636500000000000000000000000000000081525060200191505060405180910390fd5b60018060003373ffffffffffffffffffffffffffffffffffffffff1673ffffffffffffffffffffffffffffffffffffffff16815260200190815260200160002060006101000a81548160ff0219169083151502179055506000806001815260200190815260200160002060030160008154809291906001019190505550610baa565b60028114156107c057600260003373ffffffffffffffffffffffffffffffffffffffff1673ffffffffffffffffffffffffffffffffffffffff16815260200190815260200160002060009054906101000a900460ff1615151561073d576040517f08c379a00000000000000000000000000000000000000000000000000000000081526004018080602001828103825260118152602001807f43616e6e6f7420766f746520747769636500000000000000000000000000000081525060200191505060405180910390fd5b6001600260003373ffffffffffffffffffffffffffffffffffffffff1673ffffffffffffffffffffffffffffffffffffffff16815260200190815260200160002060006101000a81548160ff0219169083151502179055506000806002815260200190815260200160002060030160008154809291906001019190505550610ba9565b600381141561090e57600360003373ffffffffffffffffffffffffffffffffffffffff1673ffffffffffffffffffffffffffffffffffffffff16815260200190815260200160002060009054906101000a900460ff1615151561088b576040517f08c379a00000000000000000000000000000000000000000000000000000000081526004018080602001828103825260118152602001807f43616e6e6f7420766f746520747769636500000000000000000000000000000081525060200191505060405180910390fd5b6001600360003373ffffffffffffffffffffffffffffffffffffffff1673ffffffffffffffffffffffffffffffffffffffff16815260200190815260200160002060006101000a81548160ff0219169083151502179055506000806003815260200190815260200160002060030160008154809291906001019190505550610ba8565b6004811415610a5c57600460003373ffffffffffffffffffffffffffffffffffffffff1673ffffffffffffffffffffffffffffffffffffffff16815260200190815260200160002060009054906101000a900460ff161515156109d9576040517f08c379a00000000000000000000000000000000000000000000000000000000081526004018080602001828103825260118152602001807f43616e6e6f7420766f746520747769636500000000000000000000000000000081525060200191505060405180910390fd5b6001600460003373ffffffffffffffffffffffffffffffffffffffff1673ffffffffffffffffffffffffffffffffffffffff16815260200190815260200160002060006101000a81548160ff0219169083151502179055506000806004815260200190815260200160002060030160008154809291906001019190505550610ba7565b6005811415610ba657600560003373ffffffffffffffffffffffffffffffffffffffff1673ffffffffffffffffffffffffffffffffffffffff16815260200190815260200160002060009054906101000a900460ff16151515610b27576040517f08c379a00000000000000000000000000000000000000000000000000000000081526004018080602001828103825260118152602001807f43616e6e6f7420766f746520747769636500000000000000000000000000000081525060200191505060405180910390fd5b6001600560003373ffffffffffffffffffffffffffffffffffffffff1673ffffffffffffffffffffffffffffffffffffffff16815260200190815260200160002060006101000a81548160ff02191690831515021790555060008060058152602001908152602001600020600301600081548092919060010191905055505b5b5b5b5b50565b6000602052806000526040600020600091509050806000015490806001018054600181600116156101000203166002900480601f016020809104026020016040519081016040528092919081815260200182805460018160011615610100020316600290048015610c5f5780601f10610c3457610100808354040283529160200191610c5f565b820191906000526020600020905b815481529060010190602001808311610c4257829003601f168201915b505050505090806002018054600181600116156101000203166002900480601f016020809104026020016040519081016040528092919081815260200182805460018160011615610100020316600290048015610cfd5780601f10610cd257610100808354040283529160200191610cfd565b820191906000526020600020905b815481529060010190602001808311610ce057829003601f168201915b5050505050908060030154908060040154905085565b60026020528060005260406000206000915054906101000a900460ff1681565b60065481565b60016020528060005260406000206000915054906101000a900460ff1681565b60046020528060005260406000206000915054906101000a900460ff1681565b60036020528060005260406000206000915054906101000a900460ff1681565b600081118015610da95750600681105b1515610e1d576040517f08c379a000000000000000000000000000000000000000000000000000000000815260040180806020018281038252600f8152602001807f496e76616c696420706172616d4964000000000000000000000000000000000081525060200191505060405180910390fd5b6001811415610f6a57600160003373ffffffffffffffffffffffffffffffffffffffff1673ffffffffffffffffffffffffffffffffffffffff16815260200190815260200160002060009054906101000a900460ff16151515610ee8576040517f08c379a00000000000000000000000000000000000000000000000000000000081526004018080602001828103825260118152602001807f43616e6e6f7420766f746520747769636500000000000000000000000000000081525060200191505060405180910390fd5b60018060003373ffffffffffffffffffffffffffffffffffffffff1673ffffffffffffffffffffffffffffffffffffffff16815260200190815260200160002060006101000a81548160ff02191690831515021790555060008060018152602001908152602001600020600401600081548092919060010191905055506114a2565b60028114156110b857600260003373ffffffffffffffffffffffffffffffffffffffff1673ffffffffffffffffffffffffffffffffffffffff16815260200190815260200160002060009054906101000a900460ff16151515611035576040517f08c379a00000000000000000000000000000000000000000000000000000000081526004018080602001828103825260118152602001807f43616e6e6f7420766f746520747769636500000000000000000000000000000081525060200191505060405180910390fd5b6001600260003373ffffffffffffffffffffffffffffffffffffffff1673ffffffffffffffffffffffffffffffffffffffff16815260200190815260200160002060006101000a81548160ff02191690831515021790555060008060028152602001908152602001600020600401600081548092919060010191905055506114a1565b600381141561120657600360003373ffffffffffffffffffffffffffffffffffffffff1673ffffffffffffffffffffffffffffffffffffffff16815260200190815260200160002060009054906101000a900460ff16151515611183576040517f08c379a00000000000000000000000000000000000000000000000000000000081526004018080602001828103825260118152602001807f43616e6e6f7420766f746520747769636500000000000000000000000000000081525060200191505060405180910390fd5b6001600360003373ffffffffffffffffffffffffffffffffffffffff1673ffffffffffffffffffffffffffffffffffffffff16815260200190815260200160002060006101000a81548160ff02191690831515021790555060008060038152602001908152602001600020600401600081548092919060010191905055506114a0565b600481141561135457600460003373ffffffffffffffffffffffffffffffffffffffff1673ffffffffffffffffffffffffffffffffffffffff16815260200190815260200160002060009054906101000a900460ff161515156112d1576040517f08c379a00000000000000000000000000000000000000000000000000000000081526004018080602001828103825260118152602001807f43616e6e6f7420766f746520747769636500000000000000000000000000000081525060200191505060405180910390fd5b6001600460003373ffffffffffffffffffffffffffffffffffffffff1673ffffffffffffffffffffffffffffffffffffffff16815260200190815260200160002060006101000a81548160ff021916908315150217905550600080600481526020019081526020016000206004016000815480929190600101919050555061149f565b600581141561149e57600560003373ffffffffffffffffffffffffffffffffffffffff1673ffffffffffffffffffffffffffffffffffffffff16815260200190815260200160002060009054906101000a900460ff1615151561141f576040517f08c379a00000000000000000000000000000000000000000000000000000000081526004018080602001828103825260118152602001807f43616e6e6f7420766f746520747769636500000000000000000000000000000081525060200191505060405180910390fd5b6001600560003373ffffffffffffffffffffffffffffffffffffffff1673ffffffffffffffffffffffffffffffffffffffff16815260200190815260200160002060006101000a81548160ff02191690831515021790555060008060058152602001908152602001600020600401600081548092919060010191905055505b5b5b5b5b5056fea165627a7a72305820b53678307b94b5cfda2b04771f6fc453f329735e4af0c878732433acbc4d3e660029",
  "source": "pragma solidity ^0.5.0;\r\n\r\ncontract Election {\r\n    //struct for voting issue list\r\n    struct GovernanceParam {\r\n        uint id;\r\n        string paramName;\r\n        string paramDescription;\r\n        uint upvotes;\r\n        uint downvotes;\r\n    }\r\n\r\n    mapping(uint=>GovernanceParam) public governanceParams;\r\n    \r\n    //individual mappings votes on each issue by different users to track if user has already voted on issue\r\n    mapping (address=>bool) public votersGdp;\r\n    mapping (address=>bool) public votersInfla;\r\n    mapping (address=>bool) public votersJob;\r\n    mapping (address=>bool) public votersIsec;\r\n    mapping (address=>bool) public votersEsec;\r\n\r\n    // count of total issues to keep track of ids\r\n    uint public paramCount;\r\n\r\n    constructor() public {\r\n        paramCount = 0;\r\n        addGovernanceParams(\"GDP\",\"Gross domestic product achievement by government in past one year were satisfactory?\");\r\n        addGovernanceParams(\"Inflation\",\"Inflation rate for the past year has been within acceptable limits?\");\r\n        addGovernanceParams(\"Job Creation\",\"Job creation by government in past one year was satisfactory?\");\r\n        addGovernanceParams(\"Internal Security\",\"Impact of government policies on promoting safety and security was good?\");\r\n        addGovernanceParams(\"External Security\",\"Impact of government policies on promoting safety and security internationally was good?\");\r\n    }\r\n    \r\n    //function for initialising voting issues\r\n    function addGovernanceParams(string memory _name, string memory _description) private{\r\n        paramCount++;\r\n        governanceParams[paramCount] = GovernanceParam(paramCount,_name,_description,0,0);\r\n    }\r\n\r\n    event votedEvent (\r\n        uint indexed paramId\r\n    );\r\n    \r\n    function upvote(uint paramId) public{\r\n        require(paramId>0 && paramId<6,\"Invalid paramId\");\r\n        if(paramId == 1){\r\n            require(!votersGdp[msg.sender],\"Cannot vote twice\");\r\n            votersGdp[msg.sender] = true;\r\n            governanceParams[1].upvotes ++; \r\n        } else if(paramId == 2){\r\n            require(!votersInfla[msg.sender],\"Cannot vote twice\");\r\n            votersInfla[msg.sender] = true;\r\n            governanceParams[2].upvotes ++; \r\n        } else if(paramId == 3){\r\n            require(!votersJob[msg.sender],\"Cannot vote twice\");\r\n            votersJob[msg.sender] = true;\r\n            governanceParams[3].upvotes ++; \r\n        } else if(paramId == 4){\r\n            require(!votersIsec[msg.sender],\"Cannot vote twice\");\r\n            votersIsec[msg.sender] = true;\r\n            governanceParams[4].upvotes ++; \r\n        } else if(paramId == 5){\r\n            require(!votersEsec[msg.sender],\"Cannot vote twice\");\r\n            votersEsec[msg.sender] = true;\r\n            governanceParams[5].upvotes ++; \r\n        }\r\n         //emit votedEvent(paramId);\r\n    }\r\n\r\n    function downvote(uint paramId) public{\r\n        require(paramId>0 && paramId<6,\"Invalid paramId\");\r\n        if(paramId == 1){\r\n            require(!votersGdp[msg.sender],\"Cannot vote twice\");\r\n            votersGdp[msg.sender] = true;\r\n            governanceParams[1].downvotes ++; \r\n        } else if(paramId == 2){\r\n            require(!votersInfla[msg.sender],\"Cannot vote twice\");\r\n            votersInfla[msg.sender] = true;\r\n            governanceParams[2].downvotes ++; \r\n        } else if(paramId == 3){\r\n            require(!votersJob[msg.sender],\"Cannot vote twice\");\r\n            votersJob[msg.sender] = true;\r\n            governanceParams[3].downvotes ++; \r\n        } else if(paramId == 4){\r\n            require(!votersIsec[msg.sender],\"Cannot vote twice\");\r\n            votersIsec[msg.sender] = true;\r\n            governanceParams[4].downvotes ++; \r\n        } else if(paramId == 5){\r\n            require(!votersEsec[msg.sender],\"Cannot vote twice\");\r\n            votersEsec[msg.sender] = true;\r\n            governanceParams[5].downvotes ++; \r\n        }\r\n        // emit votedEvent(paramId);\r\n    }\r\n\r\n\r\n    \r\n}\r\n",
  "sourcePath": "C:/code/voting/contracts/Election.sol",
  "compiler": {
    "name": "solc",
    "version": "0.5.0+commit.1d4f565a.Emscripten.clang"
  },
  "schemaVersion": "3.0.2",
  "updatedAt": "2019-03-10T03:34:54.699Z",
  "devdoc": {
    "methods": {}
  },
  "userdoc": {
    "methods": {}
  }
}